{
  "abi": [
    {
      "inputs": [
        {
          "internalType": "uint256",
          "name": "_protocolFee",
          "type": "uint256"
        }
      ],
      "stateMutability": "nonpayable",
      "type": "constructor"
    },
    {
      "anonymous": false,
      "inputs": [
        {
          "indexed": true,
          "internalType": "contract IPepperStake",
          "name": "pepperStake",
          "type": "address"
        },
        {
          "indexed": false,
          "internalType": "address[]",
          "name": "_supervisors",
          "type": "address[]"
        },
        {
          "indexed": false,
          "internalType": "uint256",
          "name": "_stakeAmount",
          "type": "uint256"
        },
        {
          "indexed": false,
          "internalType": "address[]",
          "name": "_unreturnedStakeBeneficiaries",
          "type": "address[]"
        },
        {
          "indexed": false,
          "internalType": "uint256",
          "name": "_returnWindowDays",
          "type": "uint256"
        },
        {
          "indexed": false,
          "internalType": "uint256",
          "name": "_maxParticipants",
          "type": "uint256"
        },
        {
          "indexed": false,
          "internalType": "bool",
          "name": "_shouldParticipantsShareUnreturnedStake",
          "type": "bool"
        },
        {
          "indexed": false,
          "internalType": "bool",
          "name": "_shouldUseSupervisorInactionGuard",
          "type": "bool"
        },
        {
          "indexed": false,
          "internalType": "string",
          "name": "_metadataURI",
          "type": "string"
        }
      ],
      "name": "DeployPepperStake",
      "type": "event"
    },
    {
      "inputs": [
        {
          "internalType": "address[]",
          "name": "_supervisors",
          "type": "address[]"
        },
        {
          "internalType": "uint256",
          "name": "_stakeAmount",
          "type": "uint256"
        },
        {
          "internalType": "address[]",
          "name": "_unreturnedStakeBeneficiaries",
          "type": "address[]"
        },
        {
          "internalType": "uint256",
          "name": "_returnWindowDays",
          "type": "uint256"
        },
        {
          "internalType": "uint256",
          "name": "_maxParticipants",
          "type": "uint256"
        },
        {
          "internalType": "bool",
          "name": "_shouldParticipantsShareUnreturnedStake",
          "type": "bool"
        },
        {
          "internalType": "bool",
          "name": "_shouldUseSupervisorInactionGuard",
          "type": "bool"
        },
        {
          "internalType": "string",
          "name": "_metadataURI",
          "type": "string"
        }
      ],
      "name": "deployPepperStake",
      "outputs": [
        {
          "internalType": "contract IPepperStake",
          "name": "pepperStake",
          "type": "address"
        }
      ],
      "stateMutability": "nonpayable",
      "type": "function"
    },
    {
      "inputs": [],
      "name": "protocolFee",
      "outputs": [
        {
          "internalType": "uint256",
          "name": "",
          "type": "uint256"
        }
      ],
      "stateMutability": "view",
      "type": "function"
    }
  ],
  "bytecode": {
    "object": "0x608060405234801561001057600080fd5b50604051611ab0380380611ab083398101604081905261002f91610037565b600055610050565b60006020828403121561004957600080fd5b5051919050565b611a518061005f6000396000f3fe60806040523480156200001157600080fd5b50600436106200003a5760003560e01c80635849a039146200003f578063b0e21e8a1462000073575b600080fd5b6200005662000050366004620002b9565b6200008c565b6040516001600160a01b0390911681526020015b60405180910390f35b6200007d60005481565b6040519081526020016200006a565b60008888888888888888604051620000a49062000134565b620000b7989796959493929190620003d4565b604051809103906000f080158015620000d4573d6000803e3d6000fd5b509050806001600160a01b03167f1141001a3d10e5580ed93d2bc916d9bf7fce613de5d72b0d2fe6c5dcc081930d8a8a8a8a8a8a8a8a60405162000120989796959493929190620003d4565b60405180910390a298975050505050505050565b6115a7806200047583390190565b634e487b7160e01b600052604160045260246000fd5b604051601f8201601f1916810167ffffffffffffffff8111828210171562000184576200018462000142565b604052919050565b600082601f8301126200019e57600080fd5b8135602067ffffffffffffffff821115620001bd57620001bd62000142565b8160051b620001ce82820162000158565b9283528481018201928281019087851115620001e957600080fd5b83870192505b84831015620002215782356001600160a01b0381168114620002115760008081fd5b82529183019190830190620001ef565b979650505050505050565b803580151581146200023d57600080fd5b919050565b600082601f8301126200025457600080fd5b813567ffffffffffffffff81111562000271576200027162000142565b62000286601f8201601f191660200162000158565b8181528460208386010111156200029c57600080fd5b816020850160208301376000918101602001919091529392505050565b600080600080600080600080610100898b031215620002d757600080fd5b883567ffffffffffffffff80821115620002f057600080fd5b620002fe8c838d016200018c565b995060208b0135985060408b01359150808211156200031c57600080fd5b6200032a8c838d016200018c565b975060608b0135965060808b013595506200034860a08c016200022c565b94506200035860c08c016200022c565b935060e08b01359150808211156200036f57600080fd5b506200037e8b828c0162000242565b9150509295985092959890939650565b600081518084526020808501945080840160005b83811015620003c95781516001600160a01b031687529582019590820190600101620003a2565b509495945050505050565b6000610100808352620003ea8184018c6200038e565b905060208a81850152838203604085015262000407828b6200038e565b915088606085015287608085015286151560a085015285151560c085015283820360e0850152845180835260005b818110156200045257868101830151848201840152820162000435565b506000838201830152601f01601f1916909101019a995050505050505050505056fe60806040523480156200001157600080fd5b50604051620015a7380380620015a7833981016040819052620000349162000349565b60005b8851811015620000a25760016000808b84815181106200005b576200005b6200041d565b6020908102919091018101516001600160a01b03168252810191909152604001600020805460ff191691151591909117905580620000998162000449565b91505062000037565b5060018790558551620000bd9060029060208901906200013d565b50600385905560048490556005805461ffff191684151561ff00191617610100841515021790556006620000f28282620004f4565b50600354620001059062015180620005c0565b620001119042620005e0565b60095550506000600a819055600b819055600c555050600d805461ffff1916905550620005f692505050565b82805482825590600052602060002090810192821562000195579160200282015b828111156200019557825182546001600160a01b0319166001600160a01b039091161782556020909201916001909101906200015e565b50620001a3929150620001a7565b5090565b5b80821115620001a35760008155600101620001a8565b634e487b7160e01b600052604160045260246000fd5b604051601f8201601f191681016001600160401b0381118282101715620001ff57620001ff620001be565b604052919050565b600082601f8301126200021957600080fd5b815160206001600160401b03821115620002375762000237620001be565b8160051b62000248828201620001d4565b92835284810182019282810190878511156200026357600080fd5b83870192505b848310156200029b5782516001600160a01b03811681146200028b5760008081fd5b8252918301919083019062000269565b979650505050505050565b80518015158114620002b757600080fd5b919050565b600082601f830112620002ce57600080fd5b81516001600160401b03811115620002ea57620002ea620001be565b602062000300601f8301601f19168201620001d4565b82815285828487010111156200031557600080fd5b60005b838110156200033557858101830151828201840152820162000318565b506000928101909101919091529392505050565b600080600080600080600080610100898b0312156200036757600080fd5b88516001600160401b03808211156200037f57600080fd5b6200038d8c838d0162000207565b995060208b0151985060408b0151915080821115620003ab57600080fd5b620003b98c838d0162000207565b975060608b0151965060808b01519550620003d760a08c01620002a6565b9450620003e760c08c01620002a6565b935060e08b0151915080821115620003fe57600080fd5b506200040d8b828c01620002bc565b9150509295985092959890939650565b634e487b7160e01b600052603260045260246000fd5b634e487b7160e01b600052601160045260246000fd5b6000600182016200045e576200045e62000433565b5060010190565b600181811c908216806200047a57607f821691505b6020821081036200049b57634e487b7160e01b600052602260045260246000fd5b50919050565b601f821115620004ef57600081815260208120601f850160051c81016020861015620004ca5750805b601f850160051c820191505b81811015620004eb57828155600101620004d6565b5050505b505050565b81516001600160401b03811115620005105762000510620001be565b620005288162000521845462000465565b84620004a1565b602080601f831160018114620005605760008415620005475750858301515b600019600386901b1c1916600185901b178555620004eb565b600085815260208120601f198616915b82811015620005915788860151825594840194600190910190840162000570565b5085821015620005b05787850151600019600388901b60f8161c191681555b5050505050600190811b01905550565b8082028115828204841417620005da57620005da62000433565b92915050565b80820180821115620005da57620005da62000433565b610fa180620006066000396000f3fe6080604052600436106101665760003560e01c806377c93662116100d15780639b0f8a501161008a578063cd1f405d11610064578063cd1f405d146103f2578063cebf058f14610407578063db3bb2fd14610426578063e548e3e71461043c57600080fd5b80639b0f8a50146103b2578063a07c765f146103c7578063aa546a9e146103dc57600080fd5b806377c936621461031c5780637c6fe70b146103245780637df7c74f146103445780638b301e2b1461035e578063922fce951461037e578063960fe94c1461039d57600080fd5b806324924bf71161012357806324924bf7146102825780632bb7954814610298578063362f04c0146102ad5780633a4b66f1146102c3578063450b3f50146102cd57806360c7dc471461030657600080fd5b806303ee438c1461016b57806309e69ede146101965780630e6fdaa1146101e6578063150b38331461021e57806315713566146102425780631f7180dd1461026c575b600080fd5b34801561017757600080fd5b5061018061046c565b60405161018d9190610c93565b60405180910390f35b3480156101a257600080fd5b506101cf6101b1366004610cfd565b60086020526000908152604090205460ff8082169161010090041682565b60408051921515835290151560208301520161018d565b3480156101f257600080fd5b50610206610201366004610d1f565b6104fa565b6040516001600160a01b03909116815260200161018d565b34801561022a57600080fd5b5061023460035481565b60405190815260200161018d565b34801561024e57600080fd5b50600d5461025c9060ff1681565b604051901515815260200161018d565b34801561027857600080fd5b50610234600b5481565b34801561028e57600080fd5b5061023460045481565b3480156102a457600080fd5b50600a54610234565b3480156102b957600080fd5b50610234600a5481565b6102cb610524565b005b3480156102d957600080fd5b5061025c6102e8366004610cfd565b6001600160a01b031660009081526020819052604090205460ff1690565b34801561031257600080fd5b5061023460015481565b6102cb610693565b34801561033057600080fd5b506102cb61033f366004610d4e565b610704565b34801561035057600080fd5b5060055461025c9060ff1681565b34801561036a57600080fd5b50610206610379366004610d1f565b6108c6565b34801561038a57600080fd5b50600d5461025c90610100900460ff1681565b3480156103a957600080fd5b50600b54610234565b3480156103be57600080fd5b50600c54610234565b3480156103d357600080fd5b50600954610234565b3480156103e857600080fd5b50610234600c5481565b3480156103fe57600080fd5b506102cb6108d6565b34801561041357600080fd5b5060055461025c90610100900460ff1681565b34801561043257600080fd5b5061023460095481565b34801561044857600080fd5b5061025c610457366004610cfd565b60006020819052908152604090205460ff1681565b6006805461047990610e13565b80601f01602080910402602001604051908101604052809291908181526020018280546104a590610e13565b80156104f25780601f106104c7576101008083540402835291602001916104f2565b820191906000526020600020905b8154815290600101906020018083116104d557829003601f168201915b505050505081565b6007818154811061050a57600080fd5b6000918252602090912001546001600160a01b0316905081565b600454600a541061054857604051631e74b6b760e11b815260040160405180910390fd5b600154341461056a57604051630be5378760e21b815260040160405180910390fd5b3360009081526008602052604090205460ff161561059b57604051635fdadce760e01b815260040160405180910390fd5b6009544211156105be57604051639038ea5360e01b815260040160405180910390fd5b6007805460018082019092557fa66cc928b5edb82af9bd49922954155ab7b0942694bea4ce44661d9a8736c688018054336001600160a01b03199091168117909155604080518082018252928352600060208085018281529382526008905290812083518154935161ffff1990941690151561ff001916176101009315159390930292909217909155600a80549161065583610e63565b909155505060405134815233907febedb8b3c678666e7f36970bc8f57abf6d8fa2e828c0da91ea5b75bf68ed101a906020015b60405180910390a250565b6009544211156106b657604051639038ea5360e01b815260040160405180910390fd5b34600c60008282546106c89190610e7c565b909155505060405134815233907f74194cee4daf68c6858b41efe9729cf57988cee7f447442f39a1e2adafd4e0219060200160405180910390a2565b3360009081526020819052604090205460ff16610734576040516364f5dc8560e01b815260040160405180910390fd5b60095442111561075757604051639038ea5360e01b815260040160405180910390fd5b60005b81518110156107cf576008600083838151811061077957610779610e95565b6020908102919091018101516001600160a01b031682528101919091526040016000205460ff166107bd576040516379c6621560e01b815260040160405180910390fd5b806107c781610e63565b91505061075a565b5060005b81518110156108825760008282815181106107f0576107f0610e95565b60200260200101519050806001600160a01b03166108fc6001549081150290604051600060405180830381858888f19350505050158015610835573d6000803e3d6000fd5b506001600160a01b0381166000908152600860205260408120805461ff001916610100179055600b80549161086983610e63565b919050555050808061087a90610e63565b9150506107d3565b50600d805460ff191660019081179091555460405133917f5c0fcb74d3baca7727216e93617730f4d45a0cc1e024f2521f940cfd0a3ab49c91610688918591610eef565b6002818154811061050a57600080fd5b60095442116108f857604051630cd6aefb60e41b815260040160405180910390fd5b600d54610100900460ff161561092157604051637263d6a960e11b815260040160405180910390fd5b610929610942565b610931610ac9565b600d805461ff001916610100179055565b600b5415610ac7576000600b54600c5461095c9190610f11565b90506000600b5467ffffffffffffffff81111561097b5761097b610d38565b6040519080825280602002602001820160405280156109a4578160200160208202803683370190505b5090506000805b600a54811015610a83576000600782815481106109ca576109ca610e95565b60009182526020808320909101546001600160a01b0316808352600890915260409091205490915060ff6101009091041615610a70576040516001600160a01b0382169086156108fc029087906000818181858888f19350505050158015610a36573d6000803e3d6000fd5b5080848481518110610a4a57610a4a610e95565b6001600160a01b039092166020928302919091019091015282610a6c81610e63565b9350505b5080610a7b81610e63565b9150506109ab565b50600c5460405133917f2114d896257ce5a58e1c18ae0d1cb1bd56f2f18c8b5a78e4541b48f40883b5af91610abb9186918890610f33565b60405180910390a25050505b565b6000600b54600a54610adb9190610f58565b1115610ac757600554606090610100900460ff168015610afe5750600d5460ff16155b15610b65576007805480602002602001604051908101604052809291908181526020018280548015610b5957602002820191906000526020600020905b81546001600160a01b03168152600190910190602001808311610b3b575b50505050509050610bc3565b6002805480602002602001604051908101604052809291908181526020018280548015610bbb57602002820191906000526020600020905b81546001600160a01b03168152600190910190602001808311610b9d575b505050505090505b600b54600a544791600091610bd89190610f58565b610be29083610f11565b905060005b8351811015610c5557838181518110610c0257610c02610e95565b60200260200101516001600160a01b03166108fc839081150290604051600060405180830381858888f19350505050158015610c42573d6000803e3d6000fd5b5080610c4d81610e63565b915050610be7565b50336001600160a01b03167f1a50eba3476dd09ccdbee500a30b43381479c55b92f8ea25850f819ec591a520848484604051610abb93929190610f33565b600060208083528351808285015260005b81811015610cc057858101830151858201604001528201610ca4565b506000604082860101526040601f19601f8301168501019250505092915050565b80356001600160a01b0381168114610cf857600080fd5b919050565b600060208284031215610d0f57600080fd5b610d1882610ce1565b9392505050565b600060208284031215610d3157600080fd5b5035919050565b634e487b7160e01b600052604160045260246000fd5b60006020808385031215610d6157600080fd5b823567ffffffffffffffff80821115610d7957600080fd5b818501915085601f830112610d8d57600080fd5b813581811115610d9f57610d9f610d38565b8060051b604051601f19603f83011681018181108582111715610dc457610dc4610d38565b604052918252848201925083810185019188831115610de257600080fd5b938501935b82851015610e0757610df885610ce1565b84529385019392850192610de7565b98975050505050505050565b600181811c90821680610e2757607f821691505b602082108103610e4757634e487b7160e01b600052602260045260246000fd5b50919050565b634e487b7160e01b600052601160045260246000fd5b600060018201610e7557610e75610e4d565b5060010190565b80820180821115610e8f57610e8f610e4d565b92915050565b634e487b7160e01b600052603260045260246000fd5b600081518084526020808501945080840160005b83811015610ee45781516001600160a01b031687529582019590820190600101610ebf565b509495945050505050565b604081526000610f026040830185610eab565b90508260208301529392505050565b600082610f2e57634e487b7160e01b600052601260045260246000fd5b500490565b606081526000610f466060830186610eab565b60208301949094525060400152919050565b81810381811115610e8f57610e8f610e4d56fea2646970667358221220c281a0bc8b438921d9bd36ad8a8c840fa3863254b9375c69ab446e04082beadd64736f6c63430008110033a2646970667358221220220de32ed28dcea30f052f08271a9b3d609ef0eca0536407b553a46a009537e064736f6c63430008110033",
    "linkReferences": {}
  },
  "methodIdentifiers": {
    "deployPepperStake(address[],uint256,address[],uint256,uint256,bool,bool,string)": "5849a039",
    "protocolFee()": "b0e21e8a"
  },
  "id": 17
}