{
  "abi": [
    {
      "inputs": [
        {
          "internalType": "uint256",
          "name": "_protocolFee",
          "type": "uint256"
        }
      ],
      "stateMutability": "nonpayable",
      "type": "constructor"
    },
    {
      "anonymous": false,
      "inputs": [
        {
          "indexed": true,
          "internalType": "contract IPepperStake",
          "name": "pepperStake",
          "type": "address"
        },
        {
          "indexed": false,
          "internalType": "address[]",
          "name": "_supervisors",
          "type": "address[]"
        },
        {
          "indexed": false,
          "internalType": "uint256",
          "name": "_stakeAmount",
          "type": "uint256"
        },
        {
          "indexed": false,
          "internalType": "address[]",
          "name": "_unreturnedStakeBeneficiaries",
          "type": "address[]"
        },
        {
          "indexed": false,
          "internalType": "uint256",
          "name": "_returnWindowDays",
          "type": "uint256"
        },
        {
          "indexed": false,
          "internalType": "uint256",
          "name": "_maxParticipants",
          "type": "uint256"
        },
        {
          "indexed": false,
          "internalType": "bool",
          "name": "_shouldParticipantsShareUnreturnedStake",
          "type": "bool"
        },
        {
          "indexed": false,
          "internalType": "bool",
          "name": "_shouldUseSupervisorInactionGuard",
          "type": "bool"
        },
        {
          "indexed": false,
          "internalType": "string",
          "name": "_metadataURI",
          "type": "string"
        }
      ],
      "name": "DeployPepperStake",
      "type": "event"
    },
    {
      "inputs": [
        {
          "internalType": "address[]",
          "name": "_supervisors",
          "type": "address[]"
        },
        {
          "internalType": "uint256",
          "name": "_stakeAmount",
          "type": "uint256"
        },
        {
          "internalType": "address[]",
          "name": "_unreturnedStakeBeneficiaries",
          "type": "address[]"
        },
        {
          "internalType": "uint256",
          "name": "_returnWindowDays",
          "type": "uint256"
        },
        {
          "internalType": "uint256",
          "name": "_maxParticipants",
          "type": "uint256"
        },
        {
          "internalType": "bool",
          "name": "_shouldParticipantsShareUnreturnedStake",
          "type": "bool"
        },
        {
          "internalType": "bool",
          "name": "_shouldUseSupervisorInactionGuard",
          "type": "bool"
        },
        {
          "internalType": "string",
          "name": "_metadataURI",
          "type": "string"
        }
      ],
      "name": "deployPepperStake",
      "outputs": [
        {
          "internalType": "contract IPepperStake",
          "name": "pepperStake",
          "type": "address"
        }
      ],
      "stateMutability": "nonpayable",
      "type": "function"
    },
    {
      "inputs": [],
      "name": "protocolFee",
      "outputs": [
        {
          "internalType": "uint256",
          "name": "",
          "type": "uint256"
        }
      ],
      "stateMutability": "view",
      "type": "function"
    }
  ],
  "bytecode": {
    "object": "0x608060405234801561001057600080fd5b506040516119d53803806119d583398101604081905261002f91610037565b600055610050565b60006020828403121561004957600080fd5b5051919050565b6119768061005f6000396000f3fe60806040523480156200001157600080fd5b50600436106200003a5760003560e01c80635849a039146200003f578063b0e21e8a1462000073575b600080fd5b6200005662000050366004620002b9565b6200008c565b6040516001600160a01b0390911681526020015b60405180910390f35b6200007d60005481565b6040519081526020016200006a565b60008888888888888888604051620000a49062000134565b620000b7989796959493929190620003d4565b604051809103906000f080158015620000d4573d6000803e3d6000fd5b509050806001600160a01b03167f1141001a3d10e5580ed93d2bc916d9bf7fce613de5d72b0d2fe6c5dcc081930d8a8a8a8a8a8a8a8a60405162000120989796959493929190620003d4565b60405180910390a298975050505050505050565b6114cc806200047583390190565b634e487b7160e01b600052604160045260246000fd5b604051601f8201601f1916810167ffffffffffffffff8111828210171562000184576200018462000142565b604052919050565b600082601f8301126200019e57600080fd5b8135602067ffffffffffffffff821115620001bd57620001bd62000142565b8160051b620001ce82820162000158565b9283528481018201928281019087851115620001e957600080fd5b83870192505b84831015620002215782356001600160a01b0381168114620002115760008081fd5b82529183019190830190620001ef565b979650505050505050565b803580151581146200023d57600080fd5b919050565b600082601f8301126200025457600080fd5b813567ffffffffffffffff81111562000271576200027162000142565b62000286601f8201601f191660200162000158565b8181528460208386010111156200029c57600080fd5b816020850160208301376000918101602001919091529392505050565b600080600080600080600080610100898b031215620002d757600080fd5b883567ffffffffffffffff80821115620002f057600080fd5b620002fe8c838d016200018c565b995060208b0135985060408b01359150808211156200031c57600080fd5b6200032a8c838d016200018c565b975060608b0135965060808b013595506200034860a08c016200022c565b94506200035860c08c016200022c565b935060e08b01359150808211156200036f57600080fd5b506200037e8b828c0162000242565b9150509295985092959890939650565b600081518084526020808501945080840160005b83811015620003c95781516001600160a01b031687529582019590820190600101620003a2565b509495945050505050565b6000610100808352620003ea8184018c6200038e565b905060208a81850152838203604085015262000407828b6200038e565b915088606085015287608085015286151560a085015285151560c085015283820360e0850152845180835260005b818110156200045257868101830151848201840152820162000435565b506000838201830152601f01601f1916909101019a995050505050505050505056fe60806040523480156200001157600080fd5b50604051620014cc380380620014cc833981016040819052620000349162000349565b60005b8851811015620000a25760016000808b84815181106200005b576200005b6200041d565b6020908102919091018101516001600160a01b03168252810191909152604001600020805460ff191691151591909117905580620000998162000449565b91505062000037565b5060018790558551620000bd9060029060208901906200013d565b50600385905560048490556005805461ffff191684151561ff00191617610100841515021790556006620000f28282620004f4565b50600354620001059062015180620005c0565b620001119042620005e0565b60095550506000600a819055600b819055600c555050600d805461ffff1916905550620005f692505050565b82805482825590600052602060002090810192821562000195579160200282015b828111156200019557825182546001600160a01b0319166001600160a01b039091161782556020909201916001909101906200015e565b50620001a3929150620001a7565b5090565b5b80821115620001a35760008155600101620001a8565b634e487b7160e01b600052604160045260246000fd5b604051601f8201601f191681016001600160401b0381118282101715620001ff57620001ff620001be565b604052919050565b600082601f8301126200021957600080fd5b815160206001600160401b03821115620002375762000237620001be565b8160051b62000248828201620001d4565b92835284810182019282810190878511156200026357600080fd5b83870192505b848310156200029b5782516001600160a01b03811681146200028b5760008081fd5b8252918301919083019062000269565b979650505050505050565b80518015158114620002b757600080fd5b919050565b600082601f830112620002ce57600080fd5b81516001600160401b03811115620002ea57620002ea620001be565b602062000300601f8301601f19168201620001d4565b82815285828487010111156200031557600080fd5b60005b838110156200033557858101830151828201840152820162000318565b506000928101909101919091529392505050565b600080600080600080600080610100898b0312156200036757600080fd5b88516001600160401b03808211156200037f57600080fd5b6200038d8c838d0162000207565b995060208b0151985060408b0151915080821115620003ab57600080fd5b620003b98c838d0162000207565b975060608b0151965060808b01519550620003d760a08c01620002a6565b9450620003e760c08c01620002a6565b935060e08b0151915080821115620003fe57600080fd5b506200040d8b828c01620002bc565b9150509295985092959890939650565b634e487b7160e01b600052603260045260246000fd5b634e487b7160e01b600052601160045260246000fd5b6000600182016200045e576200045e62000433565b5060010190565b600181811c908216806200047a57607f821691505b6020821081036200049b57634e487b7160e01b600052602260045260246000fd5b50919050565b601f821115620004ef57600081815260208120601f850160051c81016020861015620004ca5750805b601f850160051c820191505b81811015620004eb57828155600101620004d6565b5050505b505050565b81516001600160401b03811115620005105762000510620001be565b620005288162000521845462000465565b84620004a1565b602080601f831160018114620005605760008415620005475750858301515b600019600386901b1c1916600185901b178555620004eb565b600085815260208120601f198616915b82811015620005915788860151825594840194600190910190840162000570565b5085821015620005b05787850151600019600388901b60f8161c191681555b5050505050600190811b01905550565b8082028115828204841417620005da57620005da62000433565b92915050565b80820180821115620005da57620005da62000433565b610ec680620006066000396000f3fe6080604052600436106101665760003560e01c806377c93662116100d15780639b0f8a501161008a578063cd1f405d11610064578063cd1f405d146103cf578063cebf058f146103e4578063db3bb2fd14610403578063e548e3e71461041957600080fd5b80639b0f8a501461038f578063a07c765f146103a4578063aa546a9e146103b957600080fd5b806377c93662146102f95780637c6fe70b146103015780637df7c74f146103215780638b301e2b1461033b578063922fce951461035b578063960fe94c1461037a57600080fd5b806324924bf71161012357806324924bf71461025f5780632bb7954814610275578063362f04c01461028a5780633a4b66f1146102a0578063450b3f50146102aa57806360c7dc47146102e357600080fd5b806303ee438c1461016b57806309e69ede146101965780630e6fdaa1146101d1578063150b383314610209578063157135661461021f5780631f7180dd14610249575b600080fd5b34801561017757600080fd5b50610180610449565b60405161018d9190610bb8565b60405180910390f35b3480156101a257600080fd5b506101c36101b1366004610c22565b60086020526000908152604090205481565b60405190815260200161018d565b3480156101dd57600080fd5b506101f16101ec366004610c44565b6104d7565b6040516001600160a01b03909116815260200161018d565b34801561021557600080fd5b506101c360035481565b34801561022b57600080fd5b50600d546102399060ff1681565b604051901515815260200161018d565b34801561025557600080fd5b506101c3600b5481565b34801561026b57600080fd5b506101c360045481565b34801561028157600080fd5b50600a546101c3565b34801561029657600080fd5b506101c3600a5481565b6102a8610501565b005b3480156102b657600080fd5b506102396102c5366004610c22565b6001600160a01b031660009081526020819052604090205460ff1690565b3480156102ef57600080fd5b506101c360015481565b6102a8610634565b34801561030d57600080fd5b506102a861031c366004610c73565b6106a0565b34801561032d57600080fd5b506005546102399060ff1681565b34801561034757600080fd5b506101f1610356366004610c44565b610868565b34801561036757600080fd5b50600d5461023990610100900460ff1681565b34801561038657600080fd5b50600b546101c3565b34801561039b57600080fd5b50600c546101c3565b3480156103b057600080fd5b506009546101c3565b3480156103c557600080fd5b506101c3600c5481565b3480156103db57600080fd5b506102a8610878565b3480156103f057600080fd5b5060055461023990610100900460ff1681565b34801561040f57600080fd5b506101c360095481565b34801561042557600080fd5b50610239610434366004610c22565b60006020819052908152604090205460ff1681565b6006805461045690610d38565b80601f016020809104026020016040519081016040528092919081815260200182805461048290610d38565b80156104cf5780601f106104a4576101008083540402835291602001916104cf565b820191906000526020600020905b8154815290600101906020018083116104b257829003601f168201915b505050505081565b600781815481106104e757600080fd5b6000918252602090912001546001600160a01b0316905081565b600454600a541061052557604051631e74b6b760e11b815260040160405180910390fd5b600154341461054757604051630be5378760e21b815260040160405180910390fd5b336000908152600860205260409020541561057557604051635fdadce760e01b815260040160405180910390fd5b60095442111561059857604051639038ea5360e01b815260040160405180910390fd5b60078054600181019091557fa66cc928b5edb82af9bd49922954155ab7b0942694bea4ce44661d9a8736c6880180546001600160a01b031916339081179091556000908152600860205260408120349055600a8054916105f783610d88565b909155505060405134815233907febedb8b3c678666e7f36970bc8f57abf6d8fa2e828c0da91ea5b75bf68ed101a906020015b60405180910390a2565b60095442111561065757604051639038ea5360e01b815260040160405180910390fd5b34600c60008282546106699190610da1565b909155505060405134815233907f74194cee4daf68c6858b41efe9729cf57988cee7f447442f39a1e2adafd4e0219060200161062a565b3360009081526020819052604090205460ff166106d0576040516364f5dc8560e01b815260040160405180910390fd5b6009544211156106f357604051639038ea5360e01b815260040160405180910390fd5b60005b8151811015610770576008600083838151811061071557610715610dba565b60200260200101516001600160a01b03166001600160a01b031681526020019081526020016000205460000361075e576040516379c6621560e01b815260040160405180910390fd5b8061076881610d88565b9150506106f6565b5060005b815181101561081957600082828151811061079157610791610dba565b60200260200101519050806001600160a01b03166108fc6001549081150290604051600060405180830381858888f193505050501580156107d6573d6000803e3d6000fd5b506001600160a01b0381166000908152600860205260408120819055600b80549161080083610d88565b919050555050808061081190610d88565b915050610774565b50600d805460ff191660019081179091555460405133917f5c0fcb74d3baca7727216e93617730f4d45a0cc1e024f2521f940cfd0a3ab49c9161085d918591610e14565b60405180910390a250565b600281815481106104e757600080fd5b600954421161089a57604051630cd6aefb60e41b815260040160405180910390fd5b600d54610100900460ff16156108c357604051637263d6a960e11b815260040160405180910390fd5b6108cb6108e4565b6108d36109e1565b600d805461ff001916610100179055565b600b54156109df576000600b54600c546108fe9190610e36565b905060005b600a5481101561099a5760006007828154811061092257610922610dba565b60009182526020808320909101546001600160a01b0316808352600890915260408220549092509003610987576040516001600160a01b0382169084156108fc029085906000818181858888f19350505050158015610985573d6000803e3d6000fd5b505b508061099281610d88565b915050610903565b5060408051600081526020810191829052600c5433927f2114d896257ce5a58e1c18ae0d1cb1bd56f2f18c8b5a78e4541b48f40883b5af9261085d9290918690610e58565b565b6000600b54600a546109f39190610e7d565b11156109df57600554606090610100900460ff168015610a165750600d5460ff16155b15610a7d576007805480602002602001604051908101604052809291908181526020018280548015610a7157602002820191906000526020600020905b81546001600160a01b03168152600190910190602001808311610a53575b50505050509050610adb565b6002805480602002602001604051908101604052809291908181526020018280548015610ad357602002820191906000526020600020905b81546001600160a01b03168152600190910190602001808311610ab5575b505050505090505b600b54600a544791600091610af09190610e7d565b610afa9083610e36565b905060005b8351811015610b6d57838181518110610b1a57610b1a610dba565b60200260200101516001600160a01b03166108fc839081150290604051600060405180830381858888f19350505050158015610b5a573d6000803e3d6000fd5b5080610b6581610d88565b915050610aff565b50336001600160a01b03167f1a50eba3476dd09ccdbee500a30b43381479c55b92f8ea25850f819ec591a520848484604051610bab93929190610e58565b60405180910390a2505050565b600060208083528351808285015260005b81811015610be557858101830151858201604001528201610bc9565b506000604082860101526040601f19601f8301168501019250505092915050565b80356001600160a01b0381168114610c1d57600080fd5b919050565b600060208284031215610c3457600080fd5b610c3d82610c06565b9392505050565b600060208284031215610c5657600080fd5b5035919050565b634e487b7160e01b600052604160045260246000fd5b60006020808385031215610c8657600080fd5b823567ffffffffffffffff80821115610c9e57600080fd5b818501915085601f830112610cb257600080fd5b813581811115610cc457610cc4610c5d565b8060051b604051601f19603f83011681018181108582111715610ce957610ce9610c5d565b604052918252848201925083810185019188831115610d0757600080fd5b938501935b82851015610d2c57610d1d85610c06565b84529385019392850192610d0c565b98975050505050505050565b600181811c90821680610d4c57607f821691505b602082108103610d6c57634e487b7160e01b600052602260045260246000fd5b50919050565b634e487b7160e01b600052601160045260246000fd5b600060018201610d9a57610d9a610d72565b5060010190565b80820180821115610db457610db4610d72565b92915050565b634e487b7160e01b600052603260045260246000fd5b600081518084526020808501945080840160005b83811015610e095781516001600160a01b031687529582019590820190600101610de4565b509495945050505050565b604081526000610e276040830185610dd0565b90508260208301529392505050565b600082610e5357634e487b7160e01b600052601260045260246000fd5b500490565b606081526000610e6b6060830186610dd0565b60208301949094525060400152919050565b81810381811115610db457610db4610d7256fea2646970667358221220afc81d1f439e8ce3b8aaf031c033f7d4b050f51b3f33d979561c8ddeee5a213364736f6c63430008110033a2646970667358221220090610a935e60d72efb592e97fc9ff776fc1362ddf9279c1c0603aabf7e92e2464736f6c63430008110033",
    "linkReferences": {}
  },
  "methodIdentifiers": {
    "deployPepperStake(address[],uint256,address[],uint256,uint256,bool,bool,string)": "5849a039",
    "protocolFee()": "b0e21e8a"
  },
  "id": 15
}